{
  "contractName": "EVoting",
  "abi": [
    {
      "inputs": [],
      "stateMutability": "nonpayable",
      "type": "constructor"
    },
    {
      "anonymous": false,
      "inputs": [
        {
          "indexed": true,
          "internalType": "uint256",
          "name": "id",
          "type": "uint256"
        },
        {
          "indexed": true,
          "internalType": "address",
          "name": "voter",
          "type": "address"
        }
      ],
      "name": "Voted",
      "type": "event"
    },
    {
      "anonymous": false,
      "inputs": [
        {
          "indexed": true,
          "internalType": "uint256",
          "name": "id",
          "type": "uint256"
        },
        {
          "indexed": false,
          "internalType": "string",
          "name": "title",
          "type": "string"
        },
        {
          "indexed": false,
          "internalType": "string",
          "name": "desc",
          "type": "string"
        }
      ],
      "name": "VotingMaterialCreated",
      "type": "event"
    },
    {
      "inputs": [],
      "name": "admin",
      "outputs": [
        {
          "internalType": "address",
          "name": "",
          "type": "address"
        }
      ],
      "stateMutability": "view",
      "type": "function",
      "constant": true
    },
    {
      "inputs": [],
      "name": "totalVotingMaterials",
      "outputs": [
        {
          "internalType": "uint256",
          "name": "",
          "type": "uint256"
        }
      ],
      "stateMutability": "view",
      "type": "function",
      "constant": true
    },
    {
      "inputs": [
        {
          "internalType": "uint256",
          "name": "",
          "type": "uint256"
        }
      ],
      "name": "votingMaterials",
      "outputs": [
        {
          "internalType": "uint256",
          "name": "id",
          "type": "uint256"
        },
        {
          "internalType": "string",
          "name": "title",
          "type": "string"
        },
        {
          "internalType": "string",
          "name": "desc",
          "type": "string"
        },
        {
          "internalType": "uint256",
          "name": "vote",
          "type": "uint256"
        },
        {
          "internalType": "bool",
          "name": "exists",
          "type": "bool"
        }
      ],
      "stateMutability": "view",
      "type": "function",
      "constant": true
    },
    {
      "inputs": [
        {
          "internalType": "uint256",
          "name": "_index",
          "type": "uint256"
        }
      ],
      "name": "deleteVotingMaterials",
      "outputs": [],
      "stateMutability": "nonpayable",
      "type": "function"
    },
    {
      "inputs": [
        {
          "internalType": "string",
          "name": "_title",
          "type": "string"
        },
        {
          "internalType": "string",
          "name": "_desc",
          "type": "string"
        }
      ],
      "name": "createVotingMaterial",
      "outputs": [],
      "stateMutability": "nonpayable",
      "type": "function"
    },
    {
      "inputs": [
        {
          "internalType": "uint256",
          "name": "_id",
          "type": "uint256"
        }
      ],
      "name": "vote",
      "outputs": [],
      "stateMutability": "nonpayable",
      "type": "function"
    },
    {
      "inputs": [],
      "name": "isAdmin",
      "outputs": [
        {
          "internalType": "bool",
          "name": "",
          "type": "bool"
        }
      ],
      "stateMutability": "view",
      "type": "function",
      "constant": true
    }
  ],
  "bytecode": "0x608060405234801561000f575f80fd5b50335f806101000a81548173ffffffffffffffffffffffffffffffffffffffff021916908373ffffffffffffffffffffffffffffffffffffffff1602179055506112578061005c5f395ff3fe608060405234801561000f575f80fd5b506004361061007b575f3560e01c8063b6db75a011610059578063b6db75a0146100d5578063ceb26bcc146100f3578063d778991c1461010f578063f851a440146101435761007b565b80630121b93f1461007f5780631b9368811461009b5780633c1da9ce146100b9575b5f80fd5b610099600480360381019061009491906108b0565b610161565b005b6100a3610334565b6040516100b091906108ea565b60405180910390f35b6100d360048036038101906100ce9190610a3f565b61033a565b005b6100dd61052d565b6040516100ea9190610acf565b60405180910390f35b61010d600480360381019061010891906108b0565b610582565b005b610129600480360381019061012491906108b0565b6106a7565b60405161013a959493929190610b62565b60405180910390f35b61014b6107f1565b6040516101589190610c00565b60405180910390f35b60025f8281526020019081526020015f206005015f9054906101000a900460ff166101c1576040517f08c379a00000000000000000000000000000000000000000000000000000000081526004016101b890610c63565b60405180910390fd5b60025f8281526020019081526020015f206003015f3373ffffffffffffffffffffffffffffffffffffffff1673ffffffffffffffffffffffffffffffffffffffff1681526020019081526020015f205f9054906101000a900460ff161561025d576040517f08c379a000000000000000000000000000000000000000000000000000000000815260040161025490610ccb565b60405180910390fd5b60025f8281526020019081526020015f206004015f81548092919061028190610d16565b9190505550600160025f8381526020019081526020015f206003015f3373ffffffffffffffffffffffffffffffffffffffff1673ffffffffffffffffffffffffffffffffffffffff1681526020019081526020015f205f6101000a81548160ff0219169083151502179055503373ffffffffffffffffffffffffffffffffffffffff16817f030b0f8dcd86a031eddb071f91882edeac8173663ba775713b677b42b51be44b60405160405180910390a350565b60015481565b5f8054906101000a900473ffffffffffffffffffffffffffffffffffffffff1673ffffffffffffffffffffffffffffffffffffffff163373ffffffffffffffffffffffffffffffffffffffff16146103c7576040517f08c379a00000000000000000000000000000000000000000000000000000000081526004016103be90610dcd565b60405180910390fd5b5f82511161040a576040517f08c379a000000000000000000000000000000000000000000000000000000000815260040161040190610e35565b60405180910390fd5b5f81511161044d576040517f08c379a000000000000000000000000000000000000000000000000000000000815260040161044490610e9d565b60405180910390fd5b5f60015f81548092919061046090610d16565b9190505590508060025f8381526020019081526020015f205f01819055508260025f8381526020019081526020015f20600101908161049f91906110b5565b508160025f8381526020019081526020015f2060020190816104c191906110b5565b50600160025f8381526020019081526020015f206005015f6101000a81548160ff021916908315150217905550807fe3856426b30b3d4a405375eacea4264f6b3f0ccdc30a0b126b6ba20ffd4cd19a8484604051610520929190611184565b60405180910390a2505050565b5f805f9054906101000a900473ffffffffffffffffffffffffffffffffffffffff1673ffffffffffffffffffffffffffffffffffffffff163373ffffffffffffffffffffffffffffffffffffffff1614905090565b5f8054906101000a900473ffffffffffffffffffffffffffffffffffffffff1673ffffffffffffffffffffffffffffffffffffffff163373ffffffffffffffffffffffffffffffffffffffff161461060f576040517f08c379a000000000000000000000000000000000000000000000000000000000815260040161060690610dcd565b60405180910390fd5b5f811015610652576040517f08c379a000000000000000000000000000000000000000000000000000000000815260040161064990611203565b60405180910390fd5b60025f8281526020019081526020015f205f8082015f9055600182015f6106799190610814565b600282015f6106889190610814565b600482015f9055600582015f6101000a81549060ff0219169055505050565b6002602052805f5260405f205f91509050805f0154908060010180546106cc90610ee8565b80601f01602080910402602001604051908101604052809291908181526020018280546106f890610ee8565b80156107435780601f1061071a57610100808354040283529160200191610743565b820191905f5260205f20905b81548152906001019060200180831161072657829003601f168201915b50505050509080600201805461075890610ee8565b80601f016020809104026020016040519081016040528092919081815260200182805461078490610ee8565b80156107cf5780601f106107a6576101008083540402835291602001916107cf565b820191905f5260205f20905b8154815290600101906020018083116107b257829003601f168201915b505050505090806004015490806005015f9054906101000a900460ff16905085565b5f8054906101000a900473ffffffffffffffffffffffffffffffffffffffff1681565b50805461082090610ee8565b5f825580601f10610831575061084e565b601f0160209004905f5260205f209081019061084d9190610851565b5b50565b5b80821115610868575f815f905550600101610852565b5090565b5f604051905090565b5f80fd5b5f80fd5b5f819050919050565b61088f8161087d565b8114610899575f80fd5b50565b5f813590506108aa81610886565b92915050565b5f602082840312156108c5576108c4610875565b5b5f6108d28482850161089c565b91505092915050565b6108e48161087d565b82525050565b5f6020820190506108fd5f8301846108db565b92915050565b5f80fd5b5f80fd5b5f601f19601f8301169050919050565b7f4e487b71000000000000000000000000000000000000000000000000000000005f52604160045260245ffd5b6109518261090b565b810181811067ffffffffffffffff821117156109705761096f61091b565b5b80604052505050565b5f61098261086c565b905061098e8282610948565b919050565b5f67ffffffffffffffff8211156109ad576109ac61091b565b5b6109b68261090b565b9050602081019050919050565b828183375f83830152505050565b5f6109e36109de84610993565b610979565b9050828152602081018484840111156109ff576109fe610907565b5b610a0a8482856109c3565b509392505050565b5f82601f830112610a2657610a25610903565b5b8135610a368482602086016109d1565b91505092915050565b5f8060408385031215610a5557610a54610875565b5b5f83013567ffffffffffffffff811115610a7257610a71610879565b5b610a7e85828601610a12565b925050602083013567ffffffffffffffff811115610a9f57610a9e610879565b5b610aab85828601610a12565b9150509250929050565b5f8115159050919050565b610ac981610ab5565b82525050565b5f602082019050610ae25f830184610ac0565b92915050565b5f81519050919050565b5f82825260208201905092915050565b5f5b83811015610b1f578082015181840152602081019050610b04565b5f8484015250505050565b5f610b3482610ae8565b610b3e8185610af2565b9350610b4e818560208601610b02565b610b578161090b565b840191505092915050565b5f60a082019050610b755f8301886108db565b8181036020830152610b878187610b2a565b90508181036040830152610b9b8186610b2a565b9050610baa60608301856108db565b610bb76080830184610ac0565b9695505050505050565b5f73ffffffffffffffffffffffffffffffffffffffff82169050919050565b5f610bea82610bc1565b9050919050565b610bfa81610be0565b82525050565b5f602082019050610c135f830184610bf1565b92915050565b7f566f74696e67206d6174657269616c20646f6573206e6f7420657869737400005f82015250565b5f610c4d601e83610af2565b9150610c5882610c19565b602082019050919050565b5f6020820190508181035f830152610c7a81610c41565b9050919050565b7f416c726561647920766f746564000000000000000000000000000000000000005f82015250565b5f610cb5600d83610af2565b9150610cc082610c81565b602082019050919050565b5f6020820190508181035f830152610ce281610ca9565b9050919050565b7f4e487b71000000000000000000000000000000000000000000000000000000005f52601160045260245ffd5b5f610d208261087d565b91507fffffffffffffffffffffffffffffffffffffffffffffffffffffffffffffffff8203610d5257610d51610ce9565b5b600182019050919050565b7f4f6e6c792061646d696e2063616e20706572666f726d207468697320616374695f8201527f6f6e000000000000000000000000000000000000000000000000000000000000602082015250565b5f610db7602283610af2565b9150610dc282610d5d565b604082019050919050565b5f6020820190508181035f830152610de481610dab565b9050919050565b7f5469746c6520697320456d7074792021000000000000000000000000000000005f82015250565b5f610e1f601083610af2565b9150610e2a82610deb565b602082019050919050565b5f6020820190508181035f830152610e4c81610e13565b9050919050565b7f4465736372697074696f6e20697320456d7074792021000000000000000000005f82015250565b5f610e87601683610af2565b9150610e9282610e53565b602082019050919050565b5f6020820190508181035f830152610eb481610e7b565b9050919050565b7f4e487b71000000000000000000000000000000000000000000000000000000005f52602260045260245ffd5b5f6002820490506001821680610eff57607f821691505b602082108103610f1257610f11610ebb565b5b50919050565b5f819050815f5260205f209050919050565b5f6020601f8301049050919050565b5f82821b905092915050565b5f60088302610f747fffffffffffffffffffffffffffffffffffffffffffffffffffffffffffffffff82610f39565b610f7e8683610f39565b95508019841693508086168417925050509392505050565b5f819050919050565b5f610fb9610fb4610faf8461087d565b610f96565b61087d565b9050919050565b5f819050919050565b610fd283610f9f565b610fe6610fde82610fc0565b848454610f45565b825550505050565b5f90565b610ffa610fee565b611005818484610fc9565b505050565b5b818110156110285761101d5f82610ff2565b60018101905061100b565b5050565b601f82111561106d5761103e81610f18565b61104784610f2a565b81016020851015611056578190505b61106a61106285610f2a565b83018261100a565b50505b505050565b5f82821c905092915050565b5f61108d5f1984600802611072565b1980831691505092915050565b5f6110a5838361107e565b9150826002028217905092915050565b6110be82610ae8565b67ffffffffffffffff8111156110d7576110d661091b565b5b6110e18254610ee8565b6110ec82828561102c565b5f60209050601f83116001811461111d575f841561110b578287015190505b611115858261109a565b86555061117c565b601f19841661112b86610f18565b5f5b828110156111525784890151825560018201915060208501945060208101905061112d565b8683101561116f578489015161116b601f89168261107e565b8355505b6001600288020188555050505b505050505050565b5f6040820190508181035f83015261119c8185610b2a565b905081810360208301526111b08184610b2a565b90509392505050565b7f56616c7565206973206e756c6c000000000000000000000000000000000000005f82015250565b5f6111ed600d83610af2565b91506111f8826111b9565b602082019050919050565b5f6020820190508181035f83015261121a816111e1565b905091905056fea264697066735822122023251cd75d15ddf9c85882a47f2d5ad3b3911c3621ff6122ea76e12bef9d10ef64736f6c63430008150033",
  "immutableReferences": {},
  "source": "//SPDX-License-Identifier: MIT\r\npragma solidity ^0.8.0;\r\n\r\ncontract EVoting {\r\n    //Data address and Total Voting Material\r\n    address public admin;\r\n    uint public totalVotingMaterials;\r\n\r\n    //Data For Voting Material\r\n    struct VotingMaterial {\r\n        uint id;\r\n        string title;\r\n        string desc;\r\n        mapping(address => bool) hasVoted;\r\n        uint vote;\r\n        bool exists;\r\n    }\r\n\r\n    //For Mapping Vote Id\r\n    mapping(uint => VotingMaterial) public votingMaterials;\r\n\r\n    //Delete Voting\r\n    function deleteVotingMaterials(uint _index) external onlyAdmin {\r\n      require(_index >= 0, \"Value is null\");\r\n      delete votingMaterials[_index];\r\n    }\r\n\r\n    //For Adding Message to front end\r\n    event VotingMaterialCreated(uint indexed id, string title, string desc);\r\n    event Voted(uint indexed id, address indexed voter);\r\n\r\n    //Message for Check the account Admin only\r\n    modifier onlyAdmin() {\r\n        require(msg.sender == admin, \"Only admin can perform this action\");\r\n        _;\r\n    }\r\n\r\n    constructor() {\r\n        admin = msg.sender;\r\n    }\r\n\r\n    //For Creating Vote Material\r\n    function createVotingMaterial(string memory _title, string memory _desc) external onlyAdmin {\r\n        require(bytes(_title).length > 0, \"Title is Empty !\");\r\n        require(bytes(_desc).length > 0, \"Description is Empty !\");\r\n        uint id = totalVotingMaterials++;\r\n        votingMaterials[id].id = id;\r\n        votingMaterials[id].title = _title;\r\n        votingMaterials[id].desc = _desc;\r\n        votingMaterials[id].exists = true;\r\n        emit VotingMaterialCreated(id, _title, _desc);\r\n    }\r\n\r\n    //For Voting Material\r\n    function vote(uint _id) external {\r\n        require(votingMaterials[_id].exists, \"Voting material does not exist\");\r\n        require(!votingMaterials[_id].hasVoted[msg.sender], \"Already voted\");\r\n        votingMaterials[_id].vote++;\r\n        votingMaterials[_id].hasVoted[msg.sender] = true;\r\n        emit Voted(_id, msg.sender);\r\n    }\r\n\r\n    //For checking that, Does the user privillage is Admin or Not ?\r\n    function isAdmin() external view returns(bool) {\r\n        return msg.sender == admin;\r\n    }\r\n}\r\n",
  "sourcePath": "D:\\Project App\\e-voting-bnb-dev\\truffle\\contracts\\Evoting.sol",
  "compiler": {
    "name": "solc",
    "version": "0.8.21+commit.d9974bed.Emscripten.clang"
  },
  "schemaVersion": "3.4.16",
  "updatedAt": "2024-01-19T10:47:47.101Z",
  "networkType": "ethereum",
  "devdoc": {
    "kind": "dev",
    "methods": {},
    "version": 1
  },
  "userdoc": {
    "kind": "user",
    "methods": {},
    "version": 1
  }
}