{
  "contractName": "EVoting",
  "abi": [
    {
      "inputs": [],
      "stateMutability": "nonpayable",
      "type": "constructor"
    },
    {
      "anonymous": false,
      "inputs": [
        {
          "indexed": true,
          "internalType": "uint256",
          "name": "id",
          "type": "uint256"
        },
        {
          "indexed": true,
          "internalType": "address",
          "name": "voter",
          "type": "address"
        }
      ],
      "name": "Voted",
      "type": "event"
    },
    {
      "anonymous": false,
      "inputs": [
        {
          "indexed": true,
          "internalType": "uint256",
          "name": "id",
          "type": "uint256"
        },
        {
          "indexed": false,
          "internalType": "string",
          "name": "title",
          "type": "string"
        },
        {
          "indexed": false,
          "internalType": "string",
          "name": "desc",
          "type": "string"
        }
      ],
      "name": "VotingMaterialCreated",
      "type": "event"
    },
    {
      "inputs": [],
      "name": "admin",
      "outputs": [
        {
          "internalType": "address",
          "name": "",
          "type": "address"
        }
      ],
      "stateMutability": "view",
      "type": "function",
      "constant": true
    },
    {
      "inputs": [],
      "name": "totalVotingMaterials",
      "outputs": [
        {
          "internalType": "uint256",
          "name": "",
          "type": "uint256"
        }
      ],
      "stateMutability": "view",
      "type": "function",
      "constant": true
    },
    {
      "inputs": [
        {
          "internalType": "uint256",
          "name": "",
          "type": "uint256"
        }
      ],
      "name": "votingMaterials",
      "outputs": [
        {
          "internalType": "string",
          "name": "title",
          "type": "string"
        },
        {
          "internalType": "string",
          "name": "desc",
          "type": "string"
        },
        {
          "internalType": "uint256",
          "name": "vote",
          "type": "uint256"
        },
        {
          "internalType": "bool",
          "name": "exists",
          "type": "bool"
        }
      ],
      "stateMutability": "view",
      "type": "function",
      "constant": true
    },
    {
      "inputs": [
        {
          "internalType": "uint256",
          "name": "_index",
          "type": "uint256"
        }
      ],
      "name": "deleteVotingMaterials",
      "outputs": [],
      "stateMutability": "nonpayable",
      "type": "function"
    },
    {
      "inputs": [
        {
          "internalType": "string",
          "name": "_title",
          "type": "string"
        },
        {
          "internalType": "string",
          "name": "_desc",
          "type": "string"
        }
      ],
      "name": "createVotingMaterial",
      "outputs": [],
      "stateMutability": "nonpayable",
      "type": "function"
    },
    {
      "inputs": [
        {
          "internalType": "uint256",
          "name": "_id",
          "type": "uint256"
        }
      ],
      "name": "vote",
      "outputs": [],
      "stateMutability": "nonpayable",
      "type": "function"
    },
    {
      "inputs": [],
      "name": "isAdmin",
      "outputs": [
        {
          "internalType": "bool",
          "name": "",
          "type": "bool"
        }
      ],
      "stateMutability": "view",
      "type": "function",
      "constant": true
    }
  ],
  "bytecode": "0x608060405234801561000f575f80fd5b50335f806101000a81548173ffffffffffffffffffffffffffffffffffffffff021916908373ffffffffffffffffffffffffffffffffffffffff1602179055506112228061005c5f395ff3fe608060405234801561000f575f80fd5b506004361061007b575f3560e01c8063b6db75a011610059578063b6db75a0146100d5578063ceb26bcc146100f3578063d778991c1461010f578063f851a440146101425761007b565b80630121b93f1461007f5780631b9368811461009b5780633c1da9ce146100b9575b5f80fd5b61009960048036038101906100949190610889565b610160565b005b6100a3610333565b6040516100b091906108c3565b60405180910390f35b6100d360048036038101906100ce9190610a18565b610339565b005b6100dd610513565b6040516100ea9190610aa8565b60405180910390f35b61010d60048036038101906101089190610889565b610568565b005b61012960048036038101906101249190610889565b610686565b6040516101399493929190610b3b565b60405180910390f35b61014a6107ca565b6040516101579190610bcb565b60405180910390f35b60025f8281526020019081526020015f206004015f9054906101000a900460ff166101c0576040517f08c379a00000000000000000000000000000000000000000000000000000000081526004016101b790610c2e565b60405180910390fd5b60025f8281526020019081526020015f206002015f3373ffffffffffffffffffffffffffffffffffffffff1673ffffffffffffffffffffffffffffffffffffffff1681526020019081526020015f205f9054906101000a900460ff161561025c576040517f08c379a000000000000000000000000000000000000000000000000000000000815260040161025390610c96565b60405180910390fd5b60025f8281526020019081526020015f206003015f81548092919061028090610ce1565b9190505550600160025f8381526020019081526020015f206002015f3373ffffffffffffffffffffffffffffffffffffffff1673ffffffffffffffffffffffffffffffffffffffff1681526020019081526020015f205f6101000a81548160ff0219169083151502179055503373ffffffffffffffffffffffffffffffffffffffff16817f030b0f8dcd86a031eddb071f91882edeac8173663ba775713b677b42b51be44b60405160405180910390a350565b60015481565b5f8054906101000a900473ffffffffffffffffffffffffffffffffffffffff1673ffffffffffffffffffffffffffffffffffffffff163373ffffffffffffffffffffffffffffffffffffffff16146103c6576040517f08c379a00000000000000000000000000000000000000000000000000000000081526004016103bd90610d98565b60405180910390fd5b5f825111610409576040517f08c379a000000000000000000000000000000000000000000000000000000000815260040161040090610e00565b60405180910390fd5b5f81511161044c576040517f08c379a000000000000000000000000000000000000000000000000000000000815260040161044390610e68565b60405180910390fd5b5f60015f81548092919061045f90610ce1565b9190505590508260025f8381526020019081526020015f205f0190816104859190611080565b508160025f8381526020019081526020015f2060010190816104a79190611080565b50600160025f8381526020019081526020015f206004015f6101000a81548160ff021916908315150217905550807fe3856426b30b3d4a405375eacea4264f6b3f0ccdc30a0b126b6ba20ffd4cd19a848460405161050692919061114f565b60405180910390a2505050565b5f805f9054906101000a900473ffffffffffffffffffffffffffffffffffffffff1673ffffffffffffffffffffffffffffffffffffffff163373ffffffffffffffffffffffffffffffffffffffff1614905090565b5f8054906101000a900473ffffffffffffffffffffffffffffffffffffffff1673ffffffffffffffffffffffffffffffffffffffff163373ffffffffffffffffffffffffffffffffffffffff16146105f5576040517f08c379a00000000000000000000000000000000000000000000000000000000081526004016105ec90610d98565b60405180910390fd5b5f811015610638576040517f08c379a000000000000000000000000000000000000000000000000000000000815260040161062f906111ce565b60405180910390fd5b60025f8281526020019081526020015f205f8082015f61065891906107ed565b600182015f61066791906107ed565b600382015f9055600482015f6101000a81549060ff0219169055505050565b6002602052805f5260405f205f91509050805f0180546106a590610eb3565b80601f01602080910402602001604051908101604052809291908181526020018280546106d190610eb3565b801561071c5780601f106106f35761010080835404028352916020019161071c565b820191905f5260205f20905b8154815290600101906020018083116106ff57829003601f168201915b50505050509080600101805461073190610eb3565b80601f016020809104026020016040519081016040528092919081815260200182805461075d90610eb3565b80156107a85780601f1061077f576101008083540402835291602001916107a8565b820191905f5260205f20905b81548152906001019060200180831161078b57829003601f168201915b505050505090806003015490806004015f9054906101000a900460ff16905084565b5f8054906101000a900473ffffffffffffffffffffffffffffffffffffffff1681565b5080546107f990610eb3565b5f825580601f1061080a5750610827565b601f0160209004905f5260205f2090810190610826919061082a565b5b50565b5b80821115610841575f815f90555060010161082b565b5090565b5f604051905090565b5f80fd5b5f80fd5b5f819050919050565b61086881610856565b8114610872575f80fd5b50565b5f813590506108838161085f565b92915050565b5f6020828403121561089e5761089d61084e565b5b5f6108ab84828501610875565b91505092915050565b6108bd81610856565b82525050565b5f6020820190506108d65f8301846108b4565b92915050565b5f80fd5b5f80fd5b5f601f19601f8301169050919050565b7f4e487b71000000000000000000000000000000000000000000000000000000005f52604160045260245ffd5b61092a826108e4565b810181811067ffffffffffffffff82111715610949576109486108f4565b5b80604052505050565b5f61095b610845565b90506109678282610921565b919050565b5f67ffffffffffffffff821115610986576109856108f4565b5b61098f826108e4565b9050602081019050919050565b828183375f83830152505050565b5f6109bc6109b78461096c565b610952565b9050828152602081018484840111156109d8576109d76108e0565b5b6109e384828561099c565b509392505050565b5f82601f8301126109ff576109fe6108dc565b5b8135610a0f8482602086016109aa565b91505092915050565b5f8060408385031215610a2e57610a2d61084e565b5b5f83013567ffffffffffffffff811115610a4b57610a4a610852565b5b610a57858286016109eb565b925050602083013567ffffffffffffffff811115610a7857610a77610852565b5b610a84858286016109eb565b9150509250929050565b5f8115159050919050565b610aa281610a8e565b82525050565b5f602082019050610abb5f830184610a99565b92915050565b5f81519050919050565b5f82825260208201905092915050565b5f5b83811015610af8578082015181840152602081019050610add565b5f8484015250505050565b5f610b0d82610ac1565b610b178185610acb565b9350610b27818560208601610adb565b610b30816108e4565b840191505092915050565b5f6080820190508181035f830152610b538187610b03565b90508181036020830152610b678186610b03565b9050610b7660408301856108b4565b610b836060830184610a99565b95945050505050565b5f73ffffffffffffffffffffffffffffffffffffffff82169050919050565b5f610bb582610b8c565b9050919050565b610bc581610bab565b82525050565b5f602082019050610bde5f830184610bbc565b92915050565b7f566f74696e67206d6174657269616c20646f6573206e6f7420657869737400005f82015250565b5f610c18601e83610acb565b9150610c2382610be4565b602082019050919050565b5f6020820190508181035f830152610c4581610c0c565b9050919050565b7f416c726561647920766f746564000000000000000000000000000000000000005f82015250565b5f610c80600d83610acb565b9150610c8b82610c4c565b602082019050919050565b5f6020820190508181035f830152610cad81610c74565b9050919050565b7f4e487b71000000000000000000000000000000000000000000000000000000005f52601160045260245ffd5b5f610ceb82610856565b91507fffffffffffffffffffffffffffffffffffffffffffffffffffffffffffffffff8203610d1d57610d1c610cb4565b5b600182019050919050565b7f4f6e6c792061646d696e2063616e20706572666f726d207468697320616374695f8201527f6f6e000000000000000000000000000000000000000000000000000000000000602082015250565b5f610d82602283610acb565b9150610d8d82610d28565b604082019050919050565b5f6020820190508181035f830152610daf81610d76565b9050919050565b7f5469746c6520697320456d7074792021000000000000000000000000000000005f82015250565b5f610dea601083610acb565b9150610df582610db6565b602082019050919050565b5f6020820190508181035f830152610e1781610dde565b9050919050565b7f4465736372697074696f6e20697320456d7074792021000000000000000000005f82015250565b5f610e52601683610acb565b9150610e5d82610e1e565b602082019050919050565b5f6020820190508181035f830152610e7f81610e46565b9050919050565b7f4e487b71000000000000000000000000000000000000000000000000000000005f52602260045260245ffd5b5f6002820490506001821680610eca57607f821691505b602082108103610edd57610edc610e86565b5b50919050565b5f819050815f5260205f209050919050565b5f6020601f8301049050919050565b5f82821b905092915050565b5f60088302610f3f7fffffffffffffffffffffffffffffffffffffffffffffffffffffffffffffffff82610f04565b610f498683610f04565b95508019841693508086168417925050509392505050565b5f819050919050565b5f610f84610f7f610f7a84610856565b610f61565b610856565b9050919050565b5f819050919050565b610f9d83610f6a565b610fb1610fa982610f8b565b848454610f10565b825550505050565b5f90565b610fc5610fb9565b610fd0818484610f94565b505050565b5b81811015610ff357610fe85f82610fbd565b600181019050610fd6565b5050565b601f8211156110385761100981610ee3565b61101284610ef5565b81016020851015611021578190505b61103561102d85610ef5565b830182610fd5565b50505b505050565b5f82821c905092915050565b5f6110585f198460080261103d565b1980831691505092915050565b5f6110708383611049565b9150826002028217905092915050565b61108982610ac1565b67ffffffffffffffff8111156110a2576110a16108f4565b5b6110ac8254610eb3565b6110b7828285610ff7565b5f60209050601f8311600181146110e8575f84156110d6578287015190505b6110e08582611065565b865550611147565b601f1984166110f686610ee3565b5f5b8281101561111d578489015182556001820191506020850194506020810190506110f8565b8683101561113a5784890151611136601f891682611049565b8355505b6001600288020188555050505b505050505050565b5f6040820190508181035f8301526111678185610b03565b9050818103602083015261117b8184610b03565b90509392505050565b7f56616c7565206973206e756c6c000000000000000000000000000000000000005f82015250565b5f6111b8600d83610acb565b91506111c382611184565b602082019050919050565b5f6020820190508181035f8301526111e5816111ac565b905091905056fea264697066735822122090987c2bdd14c13cf3baf7cd7ea5afe4400e6cf8f3b3e805e0b3a76c431abe4264736f6c63430008150033",
  "immutableReferences": {},
  "source": "//SPDX-License-Identifier: MIT\r\npragma solidity ^0.8.0;\r\n\r\ncontract EVoting {\r\n    //Data address and Total Voting Material\r\n    address public admin;\r\n    uint public totalVotingMaterials;\r\n\r\n    //Data For Voting Material\r\n    struct VotingMaterial {\r\n        string title;\r\n        string desc;\r\n        mapping(address => bool) hasVoted;\r\n        uint vote;\r\n        bool exists;\r\n    }\r\n\r\n    //For Mapping Vote Id\r\n    mapping(uint => VotingMaterial) public votingMaterials;\r\n\r\n    //Delete Voting\r\n    function deleteVotingMaterials(uint _index) external onlyAdmin {\r\n      require(_index >= 0, \"Value is null\");\r\n      delete votingMaterials[_index];\r\n    }\r\n\r\n    //For Adding Message to front end\r\n    event VotingMaterialCreated(uint indexed id, string title, string desc);\r\n    event Voted(uint indexed id, address indexed voter);\r\n\r\n    //Message for Check the account Admin only\r\n    modifier onlyAdmin() {\r\n        require(msg.sender == admin, \"Only admin can perform this action\");\r\n        _;\r\n    }\r\n\r\n    constructor() {\r\n        admin = msg.sender;\r\n    }\r\n\r\n    //For Creating Vote Material\r\n    function createVotingMaterial(string memory _title, string memory _desc) external onlyAdmin {\r\n        require(bytes(_title).length > 0, \"Title is Empty !\");\r\n        require(bytes(_desc).length > 0, \"Description is Empty !\");\r\n        uint id = totalVotingMaterials++;\r\n        votingMaterials[id].title = _title;\r\n        votingMaterials[id].desc = _desc;\r\n        votingMaterials[id].exists = true;\r\n        emit VotingMaterialCreated(id, _title, _desc);\r\n    }\r\n\r\n    //For Voting Material\r\n    function vote(uint _id) external {\r\n        require(votingMaterials[_id].exists, \"Voting material does not exist\");\r\n        require(!votingMaterials[_id].hasVoted[msg.sender], \"Already voted\");\r\n        votingMaterials[_id].vote++;\r\n        votingMaterials[_id].hasVoted[msg.sender] = true;\r\n        emit Voted(_id, msg.sender);\r\n    }\r\n\r\n    //For checking that, Does the user privillage is Admin or Not ?\r\n    function isAdmin() external view returns(bool) {\r\n        return msg.sender == admin;\r\n    }\r\n}\r\n",
  "sourcePath": "D:\\Project App\\e-voting-bnb-dev\\truffle\\contracts\\Evoting.sol",
  "compiler": {
    "name": "solc",
    "version": "0.8.21+commit.d9974bed.Emscripten.clang"
  },
  "schemaVersion": "3.4.16",
  "updatedAt": "2024-01-12T13:12:55.471Z",
  "networkType": "ethereum",
  "devdoc": {
    "kind": "dev",
    "methods": {},
    "version": 1
  },
  "userdoc": {
    "kind": "user",
    "methods": {},
    "version": 1
  }
}